S0090000632E73726563B8
S11300000C9434000C9490000C9451000C94510006
S11300100C9451000C9451000C9451000C94510018
S11300200C9451000C9451000C9451000C94530006
S11300300C9451000C9451000C9451000C945100F8
S11300400C9451000C9451000C9451000C945100E8
S11300500C9451000C9451000C9451000C945100D8
S11300600C9451000C94510011241FBECFEFD8E022
S1130070DEBFCDBF11E0A0E0B1E0E8E4F3E002C0F0
S113008005900D92A632B107D9F721E0A6E2B1E0BE
S113009001C01D92AE34B207E1F70E94FB000C943C
S11300A0A2010C9400001F920F920FB60F9211241C
S11300B02F933F938F939F93AF93BF93EF93FF93AC
S11300C0EBE2F1E02EE431E080819181892B91F023
S11300D082819381009759F486818F5F868384811E
S11300E09581009739F001979383828303C0019728
S11300F0938382833796E217F30731F7FF91EF91E9
S1130100BF91AF919F918F913F912F910F900FBE0F
S11301100F901F90189585B7816085BF78940895D6
S11301201F920F920FB60F9211248F939F93EF9308
S1130130FF938091270190912801019771F4109207
S11301408100E4E8F0E08081918190932A0180931A
S11301502901118210821092260180912701909129
S11301602801892B59F4E1E8F0E0808181608083E3
S113017081E090E09093280180932701FF91EF9113
S11301809F918F910F900FBE0F901F901895EAE7E3
S1130190F0E0808187608083ACE7B0E08C9180647C
S11301A08C938081806880838081806480830895BB
S11301B01092C50087E68093C40088E18093C10053
S11301C086E08093C2000895E0ECF0E0908195FF12
S11301D0FDCF8093C6000895CF93DF93EC0188810F
S11301E0882331F021960E94E40089918111FBCF8C
S11301F0DF91CF910895CF93DF93CDB7DEB76097AA
S11302000FB6F894DEBF0FBECDBF0E948B000E94D4
S1130210C7000E94D8001092C00088E18093C100FA
S11302208EE08093C2008BEF8AB92FEF80E792E0D3
S1130230215080409040E1F700C000000AE310E044
S1130240589A8FE59AEE0197F1F700C0000058988C
S11302508091290190912A01B8010E944501CB01A6
S11302604AE0BE016F5F7F4F0E946D01CE0101968F
S11302700E94EC0080E091E00E94EC008DE00E947E
S1130280E4008AE00E94E400DBCF97FB072E16F41B
S1130290009407D077FD09D00E94590107FC05D0CE
S11302A03EF4909581959F4F0895709561957F4F89
S11302B00895AA1BBB1B51E107C0AA1FBB1FA617A9
S11302C0B70710F0A61BB70B881F991F5A95A9F7FB
S11302D080959095BC01CD010895BB274A3031F437
S11302E0992322F4BDE2909581959F4F0C94790156
S11302F0BB27FB015527AA27880F991FAA1FA417FC
S113030010F0A41B83955051B9F7A05DAA3308F0EF
S1130310A95DA193009779F7B111B1931192CB0123
S11303200C949201DC01FC01672F71917723E1F7B2
S1130330329704C07C916D9370836291AE17BF07AE
S10B0340C8F30895F894FFCFFF
S113034820636D0054656D70203A20002020004C15
S11303584452203A20004563686F203A20005472C2
S10903686967203A200041
S9030000FC
