S00C00006D61696E2E7372656373
S11300000C9434000C9451000C9451000C94510045
S11300100C9451000C9451000C9451000C94510018
S11300200C9451000C9451000C9451000C94D40085
S11300300C9451000C9451000C9451000C945100F8
S11300400C9451000C9451000C946A020C945100CD
S11300500C9451000C9451000C9451000C945100D8
S11300600C9451000C94510011241FBECFEFD8E022
S1130070DEBFCDBF11E0A0E0B1E0E4E6FEE002C0E7
S113008005900D92AA33B107D9F721E0AAE3B1E0B4
S113009001C01D92A237B207E1F70E9432050C9409
S11300A030070C9400000F931F93CF93DF938C01C0
S11300B080913C0190913D01892B81F0ECE3F1E0CA
S11300C021E030E0822FE901A781B0852F5F3F4F07
S11300D03796AB2BB9F7853021F415C0C0E0D0E0DA
S11300E080E0FE01EE0FFF1FEE0FFF1FEE0FFF1F5C
S11300F0EC1BFD0BE45CFE4F11830083738362836E
S1130100558344831682DF91CF911F910F910895F7
S113011027E0829FC0011124FC01E45CFE4F1182A0
S113012010821382128215821482168280E008954E
S1130130EF92FF921F93CF93DF93CCE3D1E010E0D3
S11301408E81882379F0E881F981309759F00995F7
S11301508E8181508E838C819D81892B19F4812F0E
S11301600E9488001F5F2796153051F7DF91CF91C9
S11301701F91FF90EF900895CF93C0E08C2F0E94C1
S11301808800CF5FC530D1F781E792E09093890072
S1130190809388008CE08093810082E080936F00DC
S11301A0CF910895789408951F920F920FB60F92ED
S11301B011242F933F938F939F93AF93BF93EF9308
S11301C0FF93ECE3F1E02FE531E080819181892B0D
S11301D091F082819381009759F486818F5F8683A1
S11301E084819581009739F001979383828303C0BA
S11301F00197938382833796E217F30731F7FF91D0
S1130200EF91BF91AF919F918F913F912F910F905B
S11302100FBE0F901F901895E0ECF0E080818823CA
S1130220ECF78091C6000895E0ECF0E0908195FF32
S1130230FDCF8093C6000895CF93DF93EC018881AE
S1130240882331F021960E94140189918111FBCFFA
S1130250DF91CF910895ECE7F0E09081907F908357
S11302609081892B8083EAE7F0E080818064808339
S1130270808186FDFDCF809178009091790008956A
S11302808CE091E00E941C0180E00E942B01BC01E3
S113029080E090E00E94DA0520E030E040E85AE394
S11302A00E94680620E030E040EA50E40E946806BC
S11302B020E030E040E05FE30E94370520E030E0DA
S11302C048EC52E40E9468060E94AB05DC01CB01B5
S11302D09093600180935F014AE06DE671E00E94B3
S11302E0F3068DE691E00E941C0184E191E00E94F6
S11302F01C01089587E191E00E941C0181E00E94A5
S11303002B01BC0180E090E00E94DA0520E030E09F
S113031040E85AE30E94680620E030E048EC52E4EA
S11303200E94680620E030E040EC5FE30E9468062B
S11303300E94AB05DC01CB019093600180935F01C7
S11303404AE068E671E00E94F30688E691E00E94C4
S11303501C0184E191E00E941C0108958EE191E06A
S11303600E941C015B9A85E38A95F1F700005B9873
S11303704A9BFECF10928500109284004A99FECFCA
S1130380609184007091850080E090E00E94DA051D
S113039020E030E040E85EE30E9468060E94A40585
S11303A0DC01CB014AE061E671E00E94F30681E6DC
S11303B091E00E941C0184E191E00E941C010895D7
S11303C05B9A85E38A95F1F700005B984A9BFECF20
S11303D010928500109284004A99FECF60918400A7
S11303E07091850080E090E00E94DA0520E030E022
S11303F040E85EE30E9468060E94A405DC01CB018C
S11304004AE061E671E00E94F306089581E691E016
S11304100E94D5062A9820910001309101012817E5
S11304203907BCF4289A2FEF81EE94E021508040E4
S11304309040E1F700C00000299A2FEF81EE94E08C
S1130440215080409040E1F700C0000029980E94AC
S1130450E001289A089581E691E00E94D506289843
S1130460209102013091030182179307BCF42A9A68
S11304702FEF81EE94E0215080409040E1F700C0DE
S11304800000299A2FEF81EE94E0215080409040A3
S1130490E1F700C0000029980E94E0012A9A08951B
S11304A081E090E090933B0180933A0184E190E0F5
S11304B0909303018093020185E090E09093010101
S11304C08093000108958DE00E9414018AE00E9447
S11304D0140108951F920F920FB60F9211242F93B7
S11304E03F934F935F936F937F938F939F93AF93B8
S11304F0BF93EF93FF938091C6008333F9F028F400
S1130500813351F0823389F03AC2873309F41DC232
S1130510883309F42EC233C281E090E090933B010A
S113052080933A010E9406022AC281E090E09093EF
S11305303B0180933A010E942B0221C20E94500287
S11305400E940C0190E090930B0180930A010E9499
S11305500C0190E090930901809308010E940C0122
S113056090E090930701809306010E940C0190E0B3
S113057090930501809304018091080190910901F1
S11305808633914309F0FBC18FEF91EE24E0815053
S113059090402040E1F700C00000299A8FEF91EECF
S11305A024E0815090402040E1F700C000002998E9
S11305B08FEF91EE24E0815090402040E1F700C09D
S11305C00000299A8FEF91EE24E081509040204062
S11305D0E1F700C0000029988FEF91EE24E08150EC
S11305E090402040E1F700C00000299A8FEF91EE7F
S11305F024E0815090402040E1F700C00000299899
S11306008FEF91EE24E0815090402040E1F700C04C
S11306100000299A8FEF91EE24E081509040204011
S1130620E1F700C0000029988FEF91EE24E081509B
S113063090402040E1F700C00000299A8FEF91EE2E
S113064024E0815090402040E1F700C00000299848
S11306508FEF91EE24E0815090402040E1F700C0FC
S11306600000299A8FEF91EE24E0815090402040C1
S1130670E1F700C0000029988FEF91EE24E081504B
S113068090402040E1F700C00000299A8FEF91EEDE
S113069024E0815090402040E1F700C000002998F8
S11306A08FEF91EE24E0815090402040E1F700C0AC
S11306B00000299A8FEF91EE24E081509040204071
S11306C0E1F700C0000029988FEF91EE24E08150FB
S11306D090402040E1F700C00000299A8FEF91EE8E
S11306E024E0815090402040E1F700C000002998A8
S11306F08FEF91EE24E0815090402040E1F700C05C
S11307000000299A8FEF91EE24E081509040204020
S1130710E1F700C0000029988FEF91EE24E08150AA
S113072090402040E1F700C00000299A8FEF91EE3D
S113073024E0815090402040E1F700C00000299857
S11307408FEF91EE24E0815090402040E1F700C00B
S11307500000299A8FEF91EE24E0815090402040D0
S1130760E1F700C0000029988FEF91EE24E081505A
S113077090402040E1F700C00000299A8FEF91EEED
S113078024E0815090402040E1F700C00000299807
S11307908FEF91EE24E0815090402040E1F700C0BB
S11307A00000299A8FEF91EE24E081509040204080
S11307B0E1F700C0000029988FEF91EE24E081500A
S11307C090402040E1F700C00000299A8FEF91EE9D
S11307D024E0815090402040E1F700C000002998B7
S11307E08FEF91EE24E0815090402040E1F700C06B
S11307F00000299A8FEF91EE24E081509040204030
S1130800E1F700C0000029988FEF91EE24E08150B9
S113081090402040E1F700C00000299A8FEF91EE4C
S113082024E0815090402040E1F700C00000299866
S11308308FEF91EE24E0815090402040E1F700C01A
S11308400000299A8FEF91EE24E0815090402040DF
S1130850E1F700C0000029988FEF91EE24E0815069
S113086090402040E1F700C00000299A8FEF91EEFC
S113087024E0815090402040E1F700C00000299816
S11308808FEF91EE24E0815090402040E1F700C0CA
S11308900000299A8FEF91EE24E08150904020408F
S11308A0E1F700C0000029988FEF91EE24E0815019
S11308B090402040E1F700C00000299A8FEF91EEAC
S11308C024E0815090402040E1F700C000002998C6
S11308D08FEF91EE24E0815090402040E1F700C07A
S11308E00000299A8FEF91EE24E08150904020403F
S11308F0E1F700C0000029988FEF91EE24E08150C9
S113090090402040E1F700C00000299A8FEF91EE5B
S113091024E0815090402040E1F700C00000299875
S11309208FEF91EE24E0815090402040E1F700C029
S11309300000299A8FEF91EE24E0815090402040EE
S1130940E1F700C0000029981AC081E090E090937C
S11309503B0180933A010E940C0190E090930301C3
S11309608093020190930101809300010E9406028A
S113097006C081E090E090933B0180933A01FF919F
S1130980EF91BF91AF919F918F917F916F915F9103
S11309904F913F912F910F900FBE0F901F9018957C
S11309A01092C0008EE08093C20008951092C5009A
S11309B087E68093C400E1ECF0E088E1808386E080
S11309C08093C200808180688083789408950E9417
S11309D0BC0044E650E061E070E080E491E00E94F5
S11309E0530044E650E062E070E08AE791E00E9440
S11309F0530044E650E063E070E08EEA91E00E9428
S1130A00530044E650E066E070E083E692E00E9422
S1130A1053000E94D2000895EAE7F0E080818760E5
S1130A208083ACE7B0E08C9180648C938081806893
S1130A3080838081806480830895539A52980895B6
S1130A40209A219A229A15B808950E94D0040E94EF
S1130A500C050E94D6040E941D050E94E7040E9412
S1130A60200508950E9425050E949800FDCF505846
S1130A70BB27AA270E944F050C942E060E9420062D
S1130A8038F00E94270620F039F49F3F19F426F429
S1130A900C941D060EF4E095E7FB0C941706E92F61
S1130AA00E943F0658F3BA17620773078407950735
S1130AB020F079F4A6F50C9461060EF4E0950B2E63
S1130AC0BA2FA02D0B01B90190010C01CA01A0019C
S1130AD01124FF27591B99F0593F50F4503E68F1F7
S1130AE01A16F040A22F232F342F4427585FF3CF38
S1130AF0469537952795A795F0405395C9F77EF409
S1130B001F16BA0B620B730B840BBAF09150A1F051
S1130B10FF0FBB1F661F771F881FC2F70EC0BA0FD7
S1130B20621F731F841F48F4879577956795B7955F
S1130B30F7959E3F08F0B0CF9395880F08F099275A
S1130B40EE0F9795879508950E94AB056894B111AF
S1130B500C94620608950E94470688F09F5798F007
S1130B60B92F9927B751B0F0E1F0660F771F881FAE
S1130B70991F1AF0BA95C9F714C0B13091F00E94C8
S1130B806106B1E008950C946106672F782F8827D9
S1130B90B85F39F0B93FCCF3869577956795B395EF
S1130BA0D9F73EF490958095709561957F4F8F4F5E
S1130BB09F4F0895E89409C097FB3EF49095809563
S1130BC0709561957F4F8F4F9F4F9923A9F0F92F0F
S1130BD096E9BB279395F695879577956795B7958D
S1130BE0F111F8CFFAF4BB0F11F460FF1BC06F5F73
S1130BF07F4F8F4F9F4F16C0882311F096E911C085
S1130C00772321F09EE8872F762F05C0662371F0A5
S1130C1096E8862F70E060E02AF09A95660F771FB9
S1130C20881FDAF7880F9695879597F9089597F9AD
S1130C309F6780E870E060E008959FEF80EC08957E
S1130C4000240A94161617061806090608950024A7
S1130C500A9412161306140605060895092E039421
S1130C60000C11F4882352F0BB0F40F4BF2B11F495
S1130C7060FF04C06F5F7F4F8F4F9F4F089557FDF4
S1130C809058440F551F59F05F3F71F04795880FF6
S1130C9097FB991F61F09F3F79F08795089512168D
S1130CA013061406551FF2CF4695F1DF08C0161639
S1130CB017061806991FF1CF8695710561050894EA
S1130CC00895E894BB2766277727CB0197F9089501
S1130CD00E947B060C942E060E94200638F00E9487
S1130CE0270620F0952311F00C9417060C941D068A
S1130CF011240C9462060E943F0670F3959FC1F381
S1130D00950F50E0551F629FF001729FBB27F00DB5
S1130D10B11D639FAA27F00DB11DAA1F649F66270A
S1130D20B00DA11D661F829F2227B00DA11D621F59
S1130D30739FB00DA11D621F839FA00D611D221F13
S1130D40749F3327A00D611D231F849F600D211DF7
S1130D50822F762F6A2F11249F5750409AF0F1F07A
S1130D6088234AF0EE0FFF1FBB1F661F771F881FE3
S1130D7091505040A9F79E3F510580F00C941706FE
S1130D800C9462065F3FE4F3983ED4F3869577951E
S1130D906795B795F795E7959F5FC1F7FE2B880F89
S1130DA0911D9695879597F90895FC0188279927B1
S1130DB0E89421912032E9F3293010F02E30C8F361
S1130DC02B3241F02D3239F4689404C00E94FE069F
S1130DD0820F911D219120532A30C0F31EF4909567
S1130DE081959F4F0895BB274A3031F4992322F40B
S1130DF0BDE2909581959F4F0C9407077AE0979FE9
S1130E00902D879F802D910D11240895BB27FB0100
S1130E105527AA27880F991FAA1FA41710F0A41BEF
S1130E2083955051B9F7A05DAA3308F0A95DA19349
S1130E30009779F7B111B1931192CB010C9420076B
S1130E40DC01FC01672F71917723E1F7329704C02D
S1130E507C916D9370836291AE17BF07C8F30895B8
S1070E60F894FFCF30
S1130E6405000A0010003C001000180054656D7061
S1130E74203A20002020004C4452203A20004166AD
S1130E847374616E64203A2000206A65656A206682
S10D0E94756E637469652120000087
S9030000FC
