S00C00006D61696E2E7372656373
S11300000C9434000C9451000C9451000C94510045
S11300100C9451000C9451000C9451000C94510018
S11300200C9451000C9451000C9451000C94D40085
S11300300C9451000C9451000C9451000C945100F8
S11300400C9451000C9451000C9451000C945100E8
S11300500C9451000C9451000C9451000C945100D8
S11300600C9451000C94510011241FBECFEFD8E022
S1130070DEBFCDBF11E0A0E0B1E0E6E9F7E002C0E9
S113008005900D92A232B107D9F721E0A2E2B1E0C6
S113009001C01D92AE34B207E1F70E94F8010C943E
S11300A0C9030C9400000F931F93CF93DF938C012B
S11300B08091220190912301892B81F0E2E2F1E009
S11300C021E030E0822FE901A781B0852F5F3F4F07
S11300D03796AB2BB9F7853021F415C0C0E0D0E0DA
S11300E080E0FE01EE0FFF1FEE0FFF1FEE0FFF1F5C
S11300F0EC1BFD0BEE5DFE4F118300837383628363
S1130100558344831682DF91CF911F910F910895F7
S113011027E0829FC0011124FC01EE5DFE4F118295
S113012010821382128215821482168280E008954E
S1130130EF92FF921F93CF93DF93C2E2D1E010E0DE
S11301408E81882379F0E881F981309759F00995F7
S11301508E8181508E838C819D81892B19F4812F0E
S11301600E9488001F5F2796153051F7DF91CF91C9
S11301701F91FF90EF900895CF93C0E08C2F0E94C1
S11301808800CF5FC530D1F781E792E09093890072
S1130190809388008CE08093810082E080936F00DC
S11301A0CF910895789408951F920F920FB60F92ED
S11301B011242F933F938F939F93AF93BF93EF9308
S11301C0FF93E2E2F1E025E431E080819181892B23
S11301D091F082819381009759F486818F5F8683A1
S11301E084819581009739F001979383828303C0BA
S11301F00197938382833796E217F30731F7FF91D0
S1130200EF91BF91AF919F918F913F912F910F905B
S11302100FBE0F901F901895E0ECF0E0908195FFD1
S1130220FDCF8093C6000895CF93DF93EC018881BE
S1130230882331F021960E940C0189918111FBCF12
S1130240DF91CF910895ECE7F0E09081907F908367
S11302509081892B8083EAE7F0E080818064808349
S1130260808186FDFDCF809178009091790008957A
S113027080E091E00E94140180E00E942301BC010F
S113028080E090E00E94990220E030E040E85AE3E8
S11302900E94270320E030E040EA50E40E94270354
S11302A020E030E040E05FE30E94FD0120E030E028
S11302B048EC52E40E9427030E946A02DC01CB014D
S11302C090934601809345014AE067E471E00E94FF
S11302D0940387E491E00E94140188E091E00E9475
S11302E0140108958BE091E00E94140181E00E94C2
S11302F02301BC0180E090E00E94990220E030E0FC
S113030040E85AE30E94270320E030E048EC52E43E
S11303100E9427030E946A02DC01CB0190934601EC
S1130320809345014AE067E471E00E94940387E406
S113033091E00E94140188E091E00E941401089564
S11303408DE00E940C018AE00E940C010895109235
S1130350C00088E18093C1008EE08093C2000895BC
S11303601092C50087E68093C40088E18093C100A1
S113037086E08093C20008950E94BC0041E050E0F2
S113038060E070E088E391E00E94530041E050E0B7
S113039060E070E082E791E00E94530041E050E0A9
S11303A060E070E080EA91E00E9453000E94D20075
S11303B00895EAE7F0E0808187608083ACE7B0E0ED
S11303C08C9180648C938081806880838081806438
S11303D080830895539A549808950E94A7010E9417
S11303E0D9010E94B0010E94EA010E94BC01089553
S11303F00E94ED010E949800FDCF5058BB27AA2708
S11304000E9415020C94ED020E94DF0238F00E9453
S1130410E60220F039F49F3F19F426F40C94DC0230
S11304200EF4E095E7FB0C94D602E92F0E94FE023D
S113043058F3BA17620773078407950720F079F415
S1130440A6F50C9420030EF4E0950B2EBA2FA02DE4
S11304500B01B90190010C01CA01A0011124FF276D
S1130460591B99F0593F50F4503E68F11A16F04068
S1130470A22F232F342F4427585FF3CF4695379567
S11304802795A795F0405395C9F77EF41F16BA0B2C
S1130490620B730B840BBAF09150A1F0FF0FBB1FDA
S11304A0661F771F881FC2F70EC0BA0F621F731F23
S11304B0841F48F4879577956795B795F7959E3F80
S11304C008F0B0CF9395880F08F09927EE0F979511
S11304D0879508950E94060388F09F5798F0B92FD6
S11304E09927B751B0F0E1F0660F771F881F991F65
S11304F01AF0BA95C9F714C0B13091F00E942003E4
S1130500B1E008950C942003672F782F8827B85FF3
S113051039F0B93FCCF3869577956795B395D9F7BC
S11305203EF490958095709561957F4F8F4F9F4FC6
S11305300895E89409C097FB3EF4909580957095D2
S113054061957F4F8F4F9F4F9923A9F0F92F96E91B
S1130550BB279395F695879577956795B795F11190
S1130560F8CFFAF4BB0F11F460FF1BC06F5F7F4F2D
S11305708F4F9F4F16C0882311F096E911C077233F
S113058021F09EE8872F762F05C0662371F096E848
S1130590862F70E060E02AF09A95660F771F881F17
S11305A0DAF7880F9695879597F9089597F99F67D5
S11305B080E870E060E008959FEF80EC08950024E7
S11305C00A941616170618060906089500240A94B4
S11305D012161306140605060895092E0394000C3A
S11305E011F4882352F0BB0F40F4BF2B11F460FFC9
S11305F004C06F5F7F4F8F4F9F4F089557FD9058F2
S1130600440F551F59F05F3F71F04795880F97FBD2
S1130610991F61F09F3F79F087950895121613068C
S11306201406551FF2CF4695F1DF08C016161706BB
S11306301806991FF1CF86957105610508940895F0
S1130640E894BB2766277727CB0197F908950E9482
S11306503A030C94ED020E94DF0238F00E94E60295
S113066020F0952311F00C94D6020C94DC02112492
S11306700C9421030E94FE0270F3959FC1F3950F21
S113068050E0551F629FF001729FBB27F00DB11D12
S1130690639FAA27F00DB11DAA1F649F6627B00DA2
S11306A0A11D661F829F2227B00DA11D621F739F8B
S11306B0B00DA11D621F839FA00D611D221F749F99
S11306C03327A00D611D231F849F600D211D822FE0
S11306D0762F6A2F11249F5750409AF0F1F0882307
S11306E04AF0EE0FFF1FBB1F661F771F881F915034
S11306F05040A9F79E3F510580F00C94D6020C940B
S113070021035F3FE4F3983ED4F38695779567958C
S1130710B795F795E7959F5FC1F7FE2B880F911D5D
S11307209695879597F90895BB274A3031F4992314
S113073022F4BDE2909581959F4F0C94A003BB27B2
S1130740FB015527AA27880F991FAA1FA41710F089
S1130750A41B83955051B9F7A05DAA3308F0A95D95
S1130760A193009779F7B111B1931192CB010C9435
S1130770B903DC01FC01672F71917723E1F732970C
S113078004C07C916D9370836291AE17BF07C8F368
S10907900895F894FFCF68
S113079654656D70203A20002020004C4452203AC3
S11307A620004563686F203A200054726967203A36
S10507B620001D
S9030000FC
