S00C00006D61696E2E7372656373
S11300000C9434000C9451000C9451000C94510045
S11300100C9451000C9451000C9451000C94510018
S11300200C9451000C9451000C9451000C94D40085
S11300300C9451000C9451000C9451000C945100F8
S11300400C9451000C9451000C9410020C94510027
S11300500C9451000C9451000C9451000C945100D8
S11300600C9451000C94510011241FBECFEFD8E022
S1130070DEBFCDBF11E0A0E0B1E0E2E7FCE002C0EA
S113008005900D92AC32B107D9F721E0ACE2B1E0B2
S113009001C01D92A436B207E1F70E9473030C94C9
S11300A037060C9400000F931F93CF93DF938C01BA
S11300B080912E0190912F01892B81F0EEE2F1E0E5
S11300C021E030E0822FE901A781B0852F5F3F4F07
S11300D03796AB2BB9F7853021F415C0C0E0D0E0DA
S11300E080E0FE01EE0FFF1FEE0FFF1FEE0FFF1F5C
S11300F0EC1BFD0BE25DFE4F11830083738362836F
S1130100558344831682DF91CF911F910F910895F7
S113011027E0829FC0011124FC01E25DFE4F1182A1
S113012010821382128215821482168280E008954E
S1130130EF92FF921F93CF93DF93CEE2D1E010E0D2
S11301408E81882379F0E881F981309759F00995F7
S11301508E8181508E838C819D81892B19F4812F0E
S11301600E9488001F5F2796153051F7DF91CF91C9
S11301701F91FF90EF900895CF93C0E08C2F0E94C1
S11301808800CF5FC530D1F781E792E09093890072
S1130190809388008CE08093810082E080936F00DC
S11301A0CF910895789408951F920F920FB60F92ED
S11301B011242F933F938F939F93AF93BF93EF9308
S11301C0FF93EEE2F1E021E531E080819181892B1A
S11301D091F082819381009759F486818F5F8683A1
S11301E084819581009739F001979383828303C0BA
S11301F00197938382833796E217F30731F7FF91D0
S1130200EF91BF91AF919F918F913F912F910F905B
S11302100FBE0F901F901895E0ECF0E080818823CA
S1130220ECF78091C60080530895E0ECF0E09081F3
S113023095FFFDCF8093C6000895CF93DF93EC0123
S11302408881882331F021960E94150189918111BA
S1130250FBCFDF91CF9108958DE00E9415018AE0D4
S11302600E9415010895ECE7F0E09081907F90835F
S11302709081892B8083EAE7F0E080818064808329
S1130280808186FDFDCF809178009091790008955A
S11302900F931F93CF93DF9381E591E00E94DC05D8
S11302A0EC018FE591E00E94DC058C010E941804AA
S11302B08AE591E00E94DC05209100013091010162
S11302C030930501209304014091080150910901E4
S11302D0C417D5073CF440910C0150910D0104174B
S11302E015073CF040912C0150912D01452B71F0E4
S11302F06CC0A9014F5F5F4F4817590734F540910F
S11303002C0150912D01452B09F466C02A98289A96
S11303102091020130910301281739070CF07BC0AA
S1130320299A2FEF81EE94E0215080409040E1F72C
S113033000C0000029982FEF81EE94E02150804006
S11303409040E1F700C0000066C040910601509162
S113035007014C175D073CF440910A0150910B01D1
S1130360401751073CF040912C0150912D01452B31
S1130370D9F50DC021503109821793070CF04BC0F9
S113038020912C0130912D01232B09F444C028988D
S11303902A9A209104013091050182179307DCF514
S11303A0299A2FEF81EE94E0215080409040E1F7AC
S11303B000C0000029982FEF81EE94E02150804086
S11303C09040E1F700C0000026C0A9014F5F5F4FD5
S11303D0481759077CF49ACF4091060150910701C0
S11303E04C175D07A4F60EC02150310982179307FC
S11303F074F211C040910601509107014C175D073A
S11304009CF7AACF40910A0150910B014017510764
S11304100CF0BDCFAFCFDF91CF911F910F91089515
S11304201F920F920FB60F9211242F933F934F9365
S11304305F936F937F938F939F93AF93BF93CF9368
S1130440DF93EF93FF938091C600833349F128F43F
S1130450813351F08233A9F0C0C0873309F485C0D9
S1130460883309F4A9C0B9C081E090E090932D01CC
S113047080932C0185E090E090930101809300012A
S1130480ACC081E090E090932D0180932C01809189
S113049004019091050190930101809300019DC096
S11304A010922D0110922C010E940C01C82F0E9461
S11304B00C012C2F30E0A901440F551F220F331FCC
S11304C0220F331F220F331F240F351F280F311D16
S11304D030930D0120930C010E940C01C82F0E943F
S11304E00C012C2F30E0A901440F551F220F331F9C
S11304F0220F331F220F331F240F351F280F311DE6
S113050030930B0120930A010E940C01C82F0E9412
S11305100C012C2F30E0A901440F551F220F331F6B
S1130520220F331F220F331F240F351F280F311DB5
S113053030930901209308010E940C01C82F0E94E6
S11305400C012C2F30E0A901440F551F220F331F3B
S1130550220F331F220F331F240F351F280F311D85
S1130560309307012093060138C081E090E0909316
S11305702D0180932C010E940C01D82F0E940C01A4
S1130580C82F0E940C012C2F30E0A901440F551FE5
S1130590220F331F220F331F220F331F240F351F47
S11305A094E6D99F200D311D1124280F311D30935D
S11305B001012093000111C00E940C0190E090936E
S11305C02D0180932C01019741F48AE591E00E946A
S11305D0DC059093010180930001FF91EF91DF917D
S11305E0CF91BF91AF919F918F917F916F915F91C7
S11305F04F913F912F910F900FBE0F901F90189520
S11306001092C0008EE08093C20008951092C5003D
S113061087E68093C400E1ECF0E088E1808386E023
S11306208093C200808180688083789408950E94BA
S1130630BC0044E650E061E070E088E793E00E948B
S1130640530044E650E062E070E082EB93E00E94E5
S1130650530044E650E063E070E086EE93E00E94CD
S1130660530044E650E066E070E08CE291E00E94C2
S1130670530044E150E068E070E088E491E00E94B7
S113068053000E94D2000895EAE7F0E08081876079
S11306908083ACE7B0E08C9180648C938081806827
S11306A080838081806480830895539A529808954A
S11306B0209A219A229A2A9A08950E9400030E945D
S11306C044030E9406030E9455030E9417030E94DC
S11306D058032FEF89E698E1215080409040E1F7DC
S11306E000C0000008950E945D030E949800FDCFA1
S11306F08EE091E00E941D0180E00E943301BC0164
S113070080E090E00E94E10420E030E040E85AE319
S11307100E946F0520E030E040EA50E40E946F053B
S113072020E030E040E05FE30E943E0420E030E05F
S113073048EC52E40E946F050E94B204DC01CB0134
S113074090935701809356014AE06FE571E00E944F
S1130750FA058FE591E00E941D0186E191E00E9477
S11307601D01089589E191E00E941D0181E00E942C
S11307703301BC0180E090E00E94E10420E030E01D
S113078040E85AE30E946F0520E030E048EC52E470
S11307900E946F0520E030E040EC5FE30E946F05AB
S11307A00E94B204DC01CB0190935701809356015F
S11307B04AE061E571E00E94FA0581E591E00E945A
S11307C01D0186E191E00E941D01089580E291E0FF
S11307D00E941D015B9A85E38A95F1F700005B98FE
S11307E04A9BFECF10928500109284004A99FECF56
S11307F0609184007091850080E090E00E94E104A3
S113080020E030E040E85EE30E946F050E94AB0404
S1130810DC01CB014AE06AE571E00E94FA058AE551
S113082091E00E941D0186E191E00E941D0108955E
S11308305B9A85E38A95F1F700005B984A9BFECFAB
S113084010928500109284004A99FECF6091840032
S11308507091850080E090E00E94E10420E030E0A7
S113086040E85EE30E946F050E94AB04DC01CB010B
S11308704AE06AE571E00E94FA0508955058BB27E2
S1130880AA270E9456040C9435050E94270538F0C7
S11308900E942E0520F039F49F3F19F426F40C949D
S11308A024050EF4E095E7FB0C941E05E92F0E9445
S11308B0460558F3BA17620773078407950720F0B3
S11308C079F4A6F50C9468050EF4E0950B2EBA2F76
S11308D0A02D0B01B90190010C01CA01A001112442
S11308E0FF27591B99F0593F50F4503E68F11A16EE
S11308F0F040A22F232F342F4427585FF3CF46957F
S113090037952795A795F0405395C9F77EF41F16A0
S1130910BA0B620B730B840BBAF09150A1F0FF0F6A
S1130920BB1F661F771F881FC2F70EC0BA0F621F56
S1130930731F841F48F4879577956795B795F79546
S11309409E3F08F0B0CF9395880F08F09927EE0FDB
S11309509795879508950E94B2046894B1110C94F8
S1130960690508950E944E0588F09F5798F0B92FA5
S11309709927B751B0F0E1F0660F771F881F991FD0
S11309801AF0BA95C9F714C0B13091F00E94680505
S1130990B1E008950C946805672F782F8827B85F15
S11309A039F0B93FCCF3869577956795B395D9F728
S11309B03EF490958095709561957F4F8F4F9F4F32
S11309C00895E89409C097FB3EF49095809570953E
S11309D061957F4F8F4F9F4F9923A9F0F92F96E987
S11309E0BB279395F695879577956795B795F111FC
S11309F0F8CFFAF4BB0F11F460FF1BC06F5F7F4F99
S1130A008F4F9F4F16C0882311F096E911C07723AA
S1130A1021F09EE8872F762F05C0662371F096E8B3
S1130A20862F70E060E02AF09A95660F771F881F82
S1130A30DAF7880F9695879597F9089597F99F6740
S1130A4080E870E060E008959FEF80EC0895002452
S1130A500A941616170618060906089500240A941F
S1130A6012161306140605060895092E0394000CA5
S1130A7011F4882352F0BB0F40F4BF2B11F460FF34
S1130A8004C06F5F7F4F8F4F9F4F089557FD90585D
S1130A90440F551F59F05F3F71F04795880F97FB3E
S1130AA0991F61F09F3F79F08795089512161306F8
S1130AB01406551FF2CF4695F1DF08C01616170627
S1130AC01806991FF1CF869571056105089408955C
S1130AD0E894BB2766277727CB0197F908950E94EE
S1130AE082050C9435050E94270538F00E942E05D6
S1130AF020F0952311F00C941E050C942405112468
S1130B000C9469050E94460570F3959FC1F3950FF7
S1130B1050E0551F629FF001729FBB27F00DB11D7D
S1130B20639FAA27F00DB11DAA1F649F6627B00D0D
S1130B30A11D661F829F2227B00DA11D621F739FF6
S1130B40B00DA11D621F839FA00D611D221F749F04
S1130B503327A00D611D231F849F600D211D822F4B
S1130B60762F6A2F11249F5750409AF0F1F0882372
S1130B704AF0EE0FFF1FBB1F661F771F881F91509F
S1130B805040A9F79E3F510580F00C941E050C942B
S1130B9069055F3FE4F3983ED4F3869577956795AE
S1130BA0B795F795E7959F5FC1F7FE2B880F911DC9
S1130BB09695879597F90895FC0188279927E894D5
S1130BC021912032E9F3293010F02E30C8F32B3272
S1130BD041F02D3239F4689404C00E940506820F56
S1130BE0911D219120532A30C0F31EF490958195D4
S1130BF09F4F0895BB274A3031F4992322F4BDE274
S1130C00909581959F4F0C940E067AE0979F902DB6
S1130C10879F802D910D11240895BB27FB01552733
S1130C20AA27880F991FAA1FA41710F0A41B839545
S1130C305051B9F7A05DAA3308F0A95DA1930097BC
S1130C4079F7B111B1931192CB010C942706DC0111
S1130C50FC01672F71917723E1F7329704C07C91EF
S1130C606D9370836291AE17BF07C8F30895F8942B
S1050C70FFCFB0
S1130C7214000500140010003C0010001800546514
S1130C826D70203A20002020004C4452203A20006B
S10F0C9264697374616E6365203A20008D
S9030000FC
