S00C00006D61696E2E7372656373
S11300000C9434000C9451000C9451000C94510045
S11300100C9451000C9451000C9451000C94510018
S11300200C9451000C9451000C9451000C94D40085
S11300300C9451000C9451000C9451000C945100F8
S11300400C9451000C9451000C9451000C945100E8
S11300500C9451000C9451000C9451000C945100D8
S11300600C9451000C94510011241FBECFEFD8E022
S1130070DEBFCDBF11E0A0E0B1E0E4E7FAE002C0EA
S113008005900D92AA34B107D9F721E0AAE4B1E0B2
S113009001C01D92A238B207E1F70E9412030C942A
S11300A038050C9400000F931F93CF93DF938C01BA
S11300B080914C0190914D01892B81F0ECE4F1E0A9
S11300C021E030E0822FE901A781B0852F5F3F4F07
S11300D03796AB2BB9F7853021F415C0C0E0D0E0DA
S11300E080E0FE01EE0FFF1FEE0FFF1FEE0FFF1F5C
S11300F0EC1BFD0BE45BFE4F11830083738362836F
S1130100558344831682DF91CF911F910F910895F7
S113011027E0829FC0011124FC01E45BFE4F1182A1
S113012010821382128215821482168280E008954E
S1130130EF92FF921F93CF93DF93CCE4D1E010E0D2
S11301408E81882379F0E881F981309759F00995F7
S11301508E8181508E838C819D81892B19F4812F0E
S11301600E9488001F5F2796153051F7DF91CF91C9
S11301701F91FF90EF900895CF93C0E08C2F0E94C1
S11301808800CF5FC530D1F781E792E09093890072
S1130190809388008CE08093810082E080936F00DC
S11301A0CF910895789408951F920F920FB60F92ED
S11301B011242F933F938F939F93AF93BF93EF9308
S11301C0FF93ECE4F1E02FE631E080819181892B0B
S11301D091F082819381009759F486818F5F8683A1
S11301E084819581009739F001979383828303C0BA
S11301F00197938382833796E217F30731F7FF91D0
S1130200EF91BF91AF919F918F913F912F910F905B
S11302100FBE0F901F901895E0ECF0E0908195FFD1
S1130220FDCF8093C6000895CF93DF93EC018881BE
S1130230882331F021960E940C0189918111FBCF12
S1130240DF91CF910895ECE7F0E09081907F908367
S11302509081892B8083EAE7F0E080818064808349
S1130260808186FDFDCF809178009091790008957A
S11302708CE091E00E94140180E00E942301BC0103
S113028080E090E00E94BA0320E030E040E85AE3C6
S11302900E94480420E030E040EA50E40E94480410
S11302A020E030E040E05FE30E94170320E030E00C
S11302B048EC52E40E9448040E948B03DC01CB0109
S11302C09093700180936F014AE06DE771E00E94A2
S11302D0FB048DE791E00E94140184E191E00E9407
S11302E01401089587E191E00E94140181E00E94C5
S11302F02301BC0180E090E00E94BA0320E030E0DA
S113030040E85AE30E94480420E030E048EC52E41C
S11303100E9448040E948B03DC01CB01909370017E
S113032080936F014AE068E771E00E94FB0488E76C
S113033091E00E94140184E191E00E941401089567
S11303408EE191E00E9414015B9A85E38A95F1F7AE
S113035000005B984A9BFECF1092850010928400A7
S11303604A99FECF609184007091850080E090E00E
S11303700E94BA0320E030E040E85EE30E944804B3
S11303800E948403DC01CB014AE061E771E00E9432
S1130390FB0481E791E00E94140184E191E00E9452
S11303A0140108955B9A85E38A95F1F700005B9840
S11303B04A9BFECF10928500109284004A99FECF8A
S11303C0609184007091850080E090E00E94BA03FF
S11303D020E030E040E85EE30E9448040E94840389
S11303E0DC01CB014AE061E771E00E94FB0408955F
S11303F081E791E00E94DD042A9820910001309168
S1130400010128173907BCF4289A2FEF81EE94E0F4
S1130410215080409040E1F700C00000299A2FEF5E
S113042081EE94E0215080409040E1F700C000004C
S113043029980E94D201289A089581E791E00E94A8
S1130440DD0428982091020130910301821793075B
S1130450BCF42A9A2FEF81EE94E021508040904022
S1130460E1F700C00000299A2FEF81EE94E02150BB
S113047080409040E1F700C0000029980E94D2011A
S11304802A9A0895CF93DF9388E791E00E94DD04D0
S1130490EC018DE791E00E94DD04AC012AE030E03C
S11304A021503109E9F7CE01880F991FCC0FDD1FC8
S11304B0CC0FDD1FCC0FDD1F8C0F9D1F9A01220F67
S11304C0331F440F551F440F551F440F551F240F4E
S11304D0351FEAE0F0E0BF010E94B504EB01C90159
S11304E0BF010E94B5048091060190910701C817CD
S11304F0D9073CF480910A0190910B0168177907A0
S11305004CF080914A0190914B01892BC9F40E94CF
S1130510F80116C080910401909105018C179D0784
S11305203CF480910801909109018617970744F0E3
S113053080914A0190914B01892B11F40E941D0274
S1130540DF91CF9108958DE00E940C018AE00E9412
S11305500C0108951092C00088E18093C1008EE0E0
S11305608093C20008951092C50087E68093C4006A
S113057088E18093C10086E08093C20008950E94C0
S1130580BC0041E050E060E070E088E391E00E944C
S1130590530041E050E060E070E082E791E00E94A7
S11305A0530041E050E060E070E080EA91E00E9496
S11305B0530041E050E060E070E082E492E00E9489
S11305C0530041E050E060E070E083EA92E00E9472
S11305D053000E94D2000895EAE7F0E0808187602A
S11305E08083ACE7B0E08C9180648C9380818068D8
S11305F080838081806480830895539A52980895FB
S1130600209A219A229A15B808950E94AA020E945B
S1130610EC020E94B3020E94FD020E94BF020E94EB
S1130620000308950E9405030E949800FDCF5058CE
S1130630BB27AA270E942F030C940E040E940004D7
S113064038F00E94070420F039F49F3F19F426F48F
S11306500C94FD030EF4E095E7FB0C94F703E92FEB
S11306600E941F0458F3BA1762077307840795079B
S113067020F079F4A6F50C9441040EF4E0950B2EC9
S1130680BA2FA02D0B01B90190010C01CA01A001E0
S11306901124FF27591B99F0593F50F4503E68F13B
S11306A01A16F040A22F232F342F4427585FF3CF7C
S11306B0469537952795A795F0405395C9F77EF44D
S11306C01F16BA0B620B730B840BBAF09150A1F096
S11306D0FF0FBB1F661F771F881FC2F70EC0BA0F1C
S11306E0621F731F841F48F4879577956795B795A4
S11306F0F7959E3F08F0B0CF9395880F08F099279F
S1130700EE0F9795879508950E948B036894B11115
S11307100C94420408950E94270488F09F5798F08F
S1130720B92F9927B751B0F0E1F0660F771F881FF2
S1130730991F1AF0BA95C9F714C0B13091F00E940C
S11307404104B1E008950C944104672F782F882761
S1130750B85F39F0B93FCCF3869577956795B39533
S1130760D9F73EF490958095709561957F4F8F4FA2
S11307709F4F0895E89409C097FB3EF490958095A7
S1130780709561957F4F8F4F9F4F9923A9F0F92F53
S113079096E9BB279395F695879577956795B795D1
S11307A0F111F8CFFAF4BB0F11F460FF1BC06F5FB7
S11307B07F4F8F4F9F4F16C0882311F096E911C0C9
S11307C0772321F09EE8872F762F05C0662371F0EA
S11307D096E8862F70E060E02AF09A95660F771FFE
S11307E0881FDAF7880F9695879597F9089597F9F2
S11307F09F6780E870E060E008959FEF80EC0895C3
S113080000240A94161617061806090608950024EB
S11308100A9412161306140605060895092E039465
S1130820000C11F4882352F0BB0F40F4BF2B11F4D9
S113083060FF04C06F5F7F4F8F4F9F4F089557FD38
S11308409058440F551F59F05F3F71F04795880F3A
S113085097FB991F61F09F3F79F0879508951216D1
S113086013061406551FF2CF4695F1DF08C016167D
S113087017061806991FF1CF86957105610508942E
S11308800895E894BB2766277727CB0197F9089545
S11308900E945B040C940E040E94000438F00E9431
S11308A0070420F0952311F00C94F7030C94FD0336
S11308B011240C9442040E941F0470F3959FC1F309
S11308C0950F50E0551F629FF001729FBB27F00DFA
S11308D0B11D639FAA27F00DB11DAA1F649F66274F
S11308E0B00DA11D661F829F2227B00DA11D621F9E
S11308F0739FB00DA11D621F839FA00D611D221F58
S1130900749F3327A00D611D231F849F600D211D3B
S1130910822F762F6A2F11249F5750409AF0F1F0BE
S113092088234AF0EE0FFF1FBB1F661F771F881F27
S113093091505040A9F79E3F510580F00C94F70365
S11309400C9442045F3FE4F3983ED4F38695779584
S11309506795B795F795E7959F5FC1F7FE2B880FCD
S1130960911D9695879597F9089597FB072E16F490
S1130970009407D077FD09D00E94C90407FC05D074
S11309803EF4909581959F4F0895709561957F4FA2
S11309900895AA1BBB1B51E107C0AA1FBB1FA617C2
S11309A0B70710F0A61BB70B881F991F5A95A9F714
S11309B080959095BC01CD010895FC018827992765
S11309C0E89421912032E9F3293010F02E30C8F355
S11309D02B3241F02D3239F4689404C00E9406058C
S11309E0820F911D219120532A30C0F31EF490955B
S11309F081959F4F0895BB274A3031F4992322F4FF
S1130A00BDE2909581959F4F0C940F057AE0979FD6
S1130A10902D879F802D910D11240895BB27FB01F4
S1130A205527AA27880F991FAA1FA41710F0A41BE3
S1130A3083955051B9F7A05DAA3308F0A95DA1933D
S1130A40009779F7B111B1931192CB010C94280559
S1130A50DC01FC01672F71917723E1F7329704C021
S1130A607C916D9370836291AE17BF07C8F30895AC
S1070A70F894FFCF24
S1130A7405000A000A0028001200160054656D706F
S1130A84203A20002020004C4452203A20004166A1
S1130A947374616E64203A20007374617475733ADC
S1130AA42000736C756974656E006F70656E656E95
S10D0AB40072756E6E696E67000033
S9030000FC
