S00C00006D61696E2E7372656373
S11300000C9434000C9451000C9451000C94510045
S11300100C9451000C9451000C9451000C94510018
S11300200C9451000C9451000C9451000C94D40085
S11300300C9451000C9451000C9451000C945100F8
S11300400C9451000C9451000C9451000C945100E8
S11300500C9451000C9451000C9451000C945100D8
S11300600C9451000C94510011241FBECFEFD8E022
S1130070DEBFCDBF11E0A0E0B1E0E4EBF3E002C0ED
S113008005900D92A030B107D9F721E0A0E0B1E0CE
S113009001C01D92A332B207E1F70E949E010C94A5
S11300A0D8010C9400000F931F93CF93DF938C011E
S11300B08091000190910101892B81F0E0E0F1E051
S11300C021E030E0822FE901A781B0852F5F3F4F07
S11300D03796AB2BB9F7853021F415C0C0E0D0E0DA
S11300E080E0FE01EE0FFF1FEE0FFF1FEE0FFF1F5C
S11300F0EC1BFD0BE050FF4F11830083738362837D
S1130100558344831682DF91CF911F910F910895F7
S113011027E0829FC0011124FC01E050FF4F1182AF
S113012010821382128215821482168280E008954E
S1130130EF92FF921F93CF93DF93C0E0D1E010E0E2
S11301408E81882379F0E881F981309759F00995F7
S11301508E8181508E838C819D81892B19F4812F0E
S11301600E9488001F5F2796153051F7DF91CF91C9
S11301701F91FF90EF900895CF93C0E08C2F0E94C1
S11301808800CF5FC530D1F781E792E09093890072
S1130190809388008CE08093810082E080936F00DC
S11301A0CF910895789408951F920F920FB60F92ED
S11301B011242F933F938F939F93AF93BF93EF9308
S11301C0FF93E0E0F1E023E231E080819181892B2B
S11301D091F082819381009759F486818F5F8683A1
S11301E084819581009739F001979383828303C0BA
S11301F00197938382833796E217F30731F7FF91D0
S1130200EF91BF91AF919F918F913F912F910F905B
S11302100FBE0F901F901895E0ECF0E080818823CA
S1130220ECF78091C6000895E0ECF0E0908195FF32
S1130230FDCF8093C6000895CF93DF93EC018881AE
S1130240882331F021960E94140189918111FBCFFA
S1130250DF91CF910895CF93DF9300D000D01F9208
S1130260CDB7DEB70E940C014AE0BE016F5F7F4F3D
S113027090E00E94A301CE0101960E941C010F9000
S11302800F900F900F900F90DF91CF9108958DE014
S11302900E9414018AE00E94140108951092C00083
S11302A088E18093C1008EE08093C200089510928B
S11302B0C50087E68093C40088E18093C10086E08E
S11302C08093C20008950E94BC0041E050E060E0C9
S11302D070E08BE291E00E94530041E050E060E066
S11302E070E087E491E00E9453000E94D2000895D8
S11302F0EAE7F0E0808187608083ACE7B0E08C912E
S113030080648C9380818068808380818064808312
S11303100895539A52980895209A219A229A15B8CA
S113032008950E944E010E9478010E9457010E9484
S113033089010E9463010E948C0108950E94910129
S11303400E949800FDCFBB274A3031F4992322F450
S1130350BDE2909581959F4F0C94AF01BB27FB01A3
S11303605527AA27880F991FAA1FA41710F0A41BAA
S113037083955051B9F7A05DAA3308F0A95DA19304
S1130380009779F7B111B1931192CB010C94C80184
S1130390DC01FC01672F71917723E1F7329704C0E8
S11303A07C916D9370836291AE17BF07C8F3089573
S10703B0F894FFCFEB
S9030000FC
