S00C00006D61696E2E7372656373
S11300000C9434000C9451000C9451000C94510045
S11300100C9451000C9451000C9451000C94510018
S11300200C9451000C9451000C9451000C94D40085
S11300300C9451000C9451000C9451000C945100F8
S11300400C9451000C9451000C9458020C945100DF
S11300500C9451000C9451000C9451000C945100D8
S11300600C9451000C94510011241FBECFEFD8E022
S1130070DEBFCDBF11E0A0E0B1E0EEE2FDE002C0E2
S113008005900D92AE32B107D9F721E0AEE2B1E0AE
S113009001C01D92AD36B207E1F70E94C5030C946E
S11300A095060C9400000F931F93CF93DF938C015C
S11300B08091320190913301892B81F0E2E3F1E0E8
S11300C021E030E0822FE901A781B0852F5F3F4F07
S11300D03796AB2BB9F7853021F415C0C0E0D0E0DA
S11300E080E0FE01EE0FFF1FEE0FFF1FEE0FFF1F5C
S11300F0EC1BFD0BEE5CFE4F118300837383628364
S1130100558344831682DF91CF911F910F910895F7
S113011027E0829FC0011124FC01EE5CFE4F118296
S113012010821382128215821482168280E008954E
S1130130EF92FF921F93CF93DF93C2E3D1E010E0DD
S11301408E81882379F0E881F981309759F00995F7
S11301508E8181508E838C819D81892B19F4812F0E
S11301600E9488001F5F2796153051F7DF91CF91C9
S11301701F91FF90EF900895CF93C0E08C2F0E94C1
S11301808800CF5FC530D1F781E792E09093890072
S1130190809388008CE08093810082E080936F00DC
S11301A0CF910895789408951F920F920FB60F92ED
S11301B011242F933F938F939F93AF93BF93EF9308
S11301C0FF93E2E3F1E025E531E080819181892B21
S11301D091F082819381009759F486818F5F8683A1
S11301E084819581009739F001979383828303C0BA
S11301F00197938382833796E217F30731F7FF91D0
S1130200EF91BF91AF919F918F913F912F910F905B
S11302100FBE0F901F901895E0ECF0E080818823CA
S1130220ECF78091C60080530895E0ECF0E09081F3
S113023095FFFDCF8093C6000895CF93DF93EC0123
S11302408881882331F021960E94150189918111BA
S1130250FBCFDF91CF9108958DE00E9415018AE0D4
S11302600E9415010895ECE7F0E09081907F90835F
S11302709081892B8083EAE7F0E080818064808329
S1130280808186FDFDCF809178009091790008955A
S11302900F931F93CF93DF9385E591E00E943A0675
S11302A0EC0188E691E00E943A068C010E947004F9
S11302B08EE591E00E943A0620910A0130910B01EB
S11302C0C217D3073CF420910E0130910F0102179D
S11302D0130734F020912E0130912F01232BA1F02C
S11302E020910201309103012115310581F54091DE
S11302F0300150913101452B51F140912E01509123
S11303002F01452B09F4B2C02A98289A10920101B2
S1130310109200012091040130910501281739073A
S11303200CF0C1C0299A2FEF81EE94E02150804057
S11303309040E1F700C0000029982FEF81EE94E08F
S1130340215080409040E1F700C00000ACC04091D3
S11303500801509109014C175D073CF440910C01D0
S113036050910D014017510744F040912E015091D6
S11303702F01452B09F083C00EC0232B89F1209156
S1130380300130913101232B59F120912E0130910C
S11303902F01232B61F128982A9A21E030E0309331
S11303A00101209300012091060130910701821779
S11303B093070CF078C0299A2FEF81EE94E0215036
S11303C080409040E1F700C0000029982FEF81EEB3
S11303D094E0215080409040E1F700C0000063C0E9
S11303E020912E0130912F01232B09F05CC0209124
S11303F0000130910101232BE9F020910601309195
S11304000701821793070CF04EC0299A2FEF81EE53
S113041094E0215080409040E1F700C0000029980A
S11304202FEF81EE94E0215080409040E1F700C02E
S1130430000039C0209104013091050128173907C3
S113044094F5299A2FEF81EE94E02150804090405A
S1130450E1F700C0000029982FEF81EE94E02150CD
S113046080409040E1F700C000001DC040910801A9
S1130470509109014C175D070CF08DCF03C0232B5D
S113048051F411C040910C0150910D0140175107D6
S11304900CF081CF72CF2091300130913101232BA8
S11304A009F49ECF78CFDF91CF911F910F910895DA
S11304B01F920F920FB60F9211242F933F934F93D5
S11304C05F936F937F938F939F93AF93BF93CF93D8
S11304D0DF93EF93FF938091C600833359F128F49F
S11304E0813351F08233B9F0CAC0873309F487C02D
S11304F0883309F4AFC0C3C081E090E090932F012A
S113050080932E0190933101809330011092030166
S113051010920201B4C081E090E090932F01809387
S11305202E019093310180933001909303018093C5
S11305300201A5C010922F0110922E010E940C01FD
S1130540C82F0E940C012C2F30E0A901440F551F25
S1130550220F331F220F331F220F331F240F351F87
S1130560280F311D30930F0120930E010E940C01BE
S1130570C82F0E940C012C2F30E0A901440F551FF5
S1130580220F331F220F331F220F331F240F351F57
S1130590280F311D30930D0120930C010E940C0192
S11305A0C82F0E940C012C2F30E0A901440F551FC5
S11305B0220F331F220F331F220F331F240F351F27
S11305C0280F311D30930B0120930A010E940C0166
S11305D0C82F0E940C012C2F30E0A901440F551F95
S11305E0220F331F220F331F220F331F240F351FF7
S11305F0280F311D309309012093080140C081E088
S113060090E090932F0180932E011092310110926B
S113061030010E940C01D82F0E940C01C82F0E94A7
S11306200C012C2F30E0A901440F551F220F331F5A
S1130630220F331F220F331F240F351F94E6D99F37
S1130640200D311D1124280F311D309307012093F3
S1130650060115C010923101109230010E940C0164
S113066090E090932F0180932E01019741F48EE541
S113067091E00E943A069093030180930201FF9156
S1130680EF91DF91CF91BF91AF919F918F917F9126
S11306906F915F914F913F912F910F900FBE0F90EB
S11306A01F9018951092C0008EE08093C2000895A8
S11306B01092C50087E68093C400E1ECF0E088E185
S11306C0808386E08093C2008081806880837894F0
S11306D008950E94BC0049E150E061E070E08AECBA
S11306E093E00E94530049E150E062E070E084E04E
S11306F094E00E94530049E150E063E070E088E335
S113070094E00E94530049E150E064E070E08CE220
S113071091E00E9453004AE050E060E070E088E419
S113072091E00E9453000E94D2000895EAE7F0E0AD
S1130730808187608083ACE7B0E08C9180648C9387
S11307408081806880838081806480830895539A47
S113075052980895209A219A229A2A9A08950E94DA
S113076052030E9496030E9458030E94A7030E940A
S113077069030E94AA032FEF89E698E12150804083
S11307809040E1F700C0000008950E94AF030E946A
S11307909800FDCF80E191E00E941D0180E00E945D
S11307A03301BC0180E090E00E943F0520E030E08E
S11307B040E85AE30E94CD0520E030E040EA50E4EE
S11307C00E94CD0520E030E040E05FE30E949C04FD
S11307D020E030E048EC52E40E94CD050E94100570
S11307E0DC01CB0190935B0180935A014AE068E6F7
S11307F071E00E94580688E691E00E941D0188E19C
S113080091E00E941D0108958BE191E00E941D0179
S113081081E00E943301BC0180E090E00E943F052A
S113082020E030E040E85AE30E94CD0520E030E0CB
S113083048EC52E40E94CD0520E030E040EC5FE358
S11308400E94CD050E941005DC01CB0190935B0151
S113085080935A014AE065E571E00E94580685E5F7
S113086091E00E941D0188E191E00E941D0108951C
S113087080E496E0909389008093880082E291E07E
S11308800E941D015B9A85E38A95F1F700005B984D
S11308904A9BFECF10928500109284004A99FECFA5
S11308A0609184007091850080E090E00E943F0593
S11308B020E030E040E85EE30E94CD050E94090597
S11308C0DC01CB014AE06EE571E00E9458068EE53A
S11308D091E00E941D0188E191E00E941D010895AC
S11308E080E496E090938900809388005B9A85E386
S11308F08A95F1F700005B984A9BFECF1092850021
S1130900109284004A99FECF609184007091850012
S113091080E090E00E943F0520E030E040E85EE3A4
S11309200E94CD050E940905DC01CB014AE06EE579
S113093071E00E94580608955058BB27AA270E94C8
S1130940B4040C9493050E94850538F00E948C052C
S113095020F039F49F3F19F426F40C9482050EF428
S1130960E095E7FB0C947C05E92F0E94A40558F35D
S1130970BA17620773078407950720F079F4A6F580
S11309800C94C6050EF4E0950B2EBA2FA02D0B0186
S1130990B90190010C01CA01A0011124FF27591BC0
S11309A099F0593F50F4503E68F11A16F040A22FC6
S11309B0232F342F4427585FF3CF46953795279537
S11309C0A795F0405395C9F77EF41F16BA0B620B36
S11309D0730B840BBAF09150A1F0FF0FBB1F661F7D
S11309E0771F881FC2F70EC0BA0F621F731F841FC0
S11309F048F4879577956795B795F7959E3F08F0E6
S1130A00B0CF9395880F08F09927EE0F97958795A7
S1130A1008950E9410056894B1110C94C7050895B7
S1130A200E94AC0588F09F5798F0B92F9927B751C9
S1130A30B0F0E1F0660F771F881F991F1AF0BA957E
S1130A40C9F714C0B13091F00E94C605B1E0089511
S1130A500C94C605672F782F8827B85F39F0B93F03
S1130A60CCF3869577956795B395D9F73EF4909531
S1130A708095709561957F4F8F4F9F4F0895E894AF
S1130A8009C097FB3EF490958095709561957F4FD2
S1130A908F4F9F4F9923A9F0F92F96E9BB27939580
S1130AA0F695879577956795B795F111F8CFFAF490
S1130AB0BB0F11F460FF1BC06F5F7F4F8F4F9F4FC1
S1130AC016C0882311F096E911C0772321F09EE81F
S1130AD0872F762F05C0662371F096E8862F70E085
S1130AE060E02AF09A95660F771F881FDAF7880F5F
S1130AF09695879597F9089597F99F6780E870E030
S1130B0060E008959FEF80EC089500240A9416167F
S1130B10170618060906089500240A9412161306E7
S1130B20140605060895092E0394000C11F4882375
S1130B3052F0BB0F40F4BF2B11F460FF04C06F5F91
S1130B407F4F8F4F9F4F089557FD9058440F551F67
S1130B5059F05F3F71F04795880F97FB991F61F03B
S1130B609F3F79F087950895121613061406551FB2
S1130B70F2CF4695F1DF08C0161617061806991F1E
S1130B80F1CF86957105610508940895E894BB2713
S1130B9066277727CB0197F908950E94E0050C9406
S1130BA093050E94850538F00E948C0520F095235A
S1130BB011F00C947C050C94820511240C94C70547
S1130BC00E94A40570F3959FC1F3950F50E0551F43
S1130BD0629FF001729FBB27F00DB11D639FAA278E
S1130BE0F00DB11DAA1F649F6627B00DA11D661FDD
S1130BF0829F2227B00DA11D621F739FB00DA11DFE
S1130C00621F839FA00D611D221F749F3327A00DB7
S1130C10611D231F849F600D211D822F762F6A2F53
S1130C2011249F5750409AF0F1F088234AF0EE0FB8
S1130C30FF1FBB1F661F771F881F91505040A9F7E5
S1130C409E3F510580F00C947C050C94C7055F3FD2
S1130C50E4F3983ED4F3869577956795B795F79521
S1130C60E7959F5FC1F7FE2B880F911D9695879599
S1130C7097F90895FC0188279927E8942191203257
S1130C80E9F3293010F02E30C8F32B3241F02D3225
S1130C9039F4689404C00E946306820F911D219167
S1130CA020532A30C0F31EF4909581959F4F0895E8
S1130CB0BB274A3031F4992322F4BDE29095819503
S1130CC09F4F0C946C067AE0979F902D879F802D00
S1130CD0910D11240895BB27FB015527AA27880FDE
S1130CE0991FAA1FA41710F0A41B83955051B9F79C
S1130CF0A05DAA3308F0A95DA193009779F7B1111B
S1130D00B1931192CB010C948506DC01FC01672F91
S1130D1071917723E1F7329704C07C916D937083CE
S1110D206291AE17BF07C8F30895F894FFCF91
S1130D2E010014000500140010003C00100018000F
S1130D3E54656D70203A20002020004C4452203A15
S1110D4E200064697374616E6365203A2000AE
S9030000FC
