S00C00006D61696E2E7372656373
S11300000C943C000C9459000C9459000C94590025
S11300100C9459000C9459000C9459000C945900F8
S11300200C9459000C9459000C9459000C94DC0065
S11300300C9459000C9459000C9459000C945900D8
S11300400C9459000C9459000C9472020C945900AD
S11300500C9459000C9459000C9459000C945900B8
S11300600C9459000C94590091029A02A302AD0217
S1130070B702C102CB02DF0211241FBECFEFD8E0CA
S1130080DEBFCDBF11E0A0E0B1E0ECEBFAE002C0CE
S113009005900D92AA33B107D9F721E0AAE3B1E0A4
S11300A001C01D92A237B207E1F70E9458030C94D5
S11300B05C050C9400000F931F93CF93DF938C0186
S11300C080913C0190913D01892B81F0ECE3F1E0BA
S11300D021E030E0822FE901A781B0852F5F3F4FF7
S11300E03796AB2BB9F7853021F415C0C0E0D0E0CA
S11300F080E0FE01EE0FFF1FEE0FFF1FEE0FFF1F4C
S1130100EC1BFD0BE45CFE4F11830083738362835D
S1130110558344831682DF91CF911F910F910895E7
S113012027E0829FC0011124FC01E45CFE4F118290
S113013010821382128215821482168280E008953E
S1130140EF92FF921F93CF93DF93CCE3D1E010E0C3
S11301508E81882379F0E881F981309759F00995E7
S11301608E8181508E838C819D81892B19F4812FFE
S11301700E9490001F5F2796153051F7DF91CF91B1
S11301801F91FF90EF900895CF93C0E08C2F0E94B1
S11301909000CF5FC530D1F781E792E0909389005A
S11301A0809388008CE08093810082E080936F00CC
S11301B0CF910895789408951F920F920FB60F92DD
S11301C011242F933F938F939F93AF93BF93EF93F8
S11301D0FF93ECE3F1E02FE531E080819181892BFD
S11301E091F082819381009759F486818F5F868391
S11301F084819581009739F001979383828303C0AA
S11302000197938382833796E217F30731F7FF91BF
S1130210EF91BF91AF919F918F913F912F910F904B
S11302200FBE0F901F901895E0ECF0E080818823BA
S1130230ECF78091C6000895E0ECF0E0908195FF22
S1130240FDCF8093C6000895CF93DF93EC0188819E
S1130250882331F021960E941C0189918111FBCFE2
S1130260DF91CF910895ECE7F0E09081907F908347
S11302709081892B8083EAE7F0E080818064808329
S1130280808186FDFDCF809178009091790008955A
S11302908CE091E00E94240180E00E943301BC01C3
S11302A080E090E00E94000420E030E040E85AE35F
S11302B00E948E0420E030E040EA50E40E948E0464
S11302C020E030E040E05FE30E945D0320E030E0A6
S11302D048EC52E40E948E040E94D103DC01CB015D
S11302E09093600180935F014AE06DE671E00E94A3
S11302F01F058DE691E00E94240184E191E00E94B3
S11303002401089587E191E00E94240181E00E9484
S11303103301BC0180E090E00E94000420E030E062
S113032040E85AE30E948E0420E030E048EC52E4B6
S11303300E948E0420E030E040EC5FE30E948E04D3
S11303400E94D103DC01CB019093600180935F0193
S11303504AE068E671E00E941F0588E691E00E9489
S1130360240184E191E00E94240108958EE191E04A
S11303700E9424015B9A85E38A95F1F700005B985B
S11303804A9BFECF10928500109284004A99FECFBA
S1130390609184007091850080E090E00E940004E8
S11303A020E030E040E85EE30E948E040E94CA032D
S11303B0DC01CB014AE061E671E00E941F0581E6A1
S11303C091E00E94240184E191E00E9424010895B7
S11303D05B9A85E38A95F1F700005B984A9BFECF10
S11303E010928500109284004A99FECF6091840097
S11303F07091850080E090E00E94000420E030E0ED
S113040040E85EE30E948E040E94CA03DC01CB0133
S11304104AE061E671E00E941F05089581E691E0DB
S11304200E9401052A9820910001309101012817AA
S11304303907BCF4289A2FEF81EE94E021508040D4
S11304409040E1F700C00000299A2FEF81EE94E07C
S1130450215080409040E1F700C0000029980E949C
S1130460E801289A089581E691E00E940105289800
S1130470209102013091030182179307BCF42A9A58
S11304802FEF81EE94E0215080409040E1F700C0CE
S11304900000299A2FEF81EE94E021508040904093
S11304A0E1F700C0000029980E94E8012A9A089503
S11304B081E090E090933B0180933A0184E190E0E5
S11304C0909303018093020185E090E090930101F1
S11304D08093000108958DE00E941C018AE00E942F
S11304E01C0108951F920F920FB60F9211242F939F
S11304F03F934F935F936F937F938F939F93AF93A8
S1130500BF93EF93FF93E091C6008E2F90E0FC0120
S1130510F197E830F10508F058C0EC5CFF4F0C94FB
S1130520FB0481E090E090933B0180933A010E94A8
S113053033024BC081E090E090933B0180933A01F9
S11305400E940E0242C00E9458020E94140190E0D0
S1130550909309018093080138C00E9458020E94B8
S1130560140190E090930501809304012EC00E9431
S113057058020E94140190E090930B0180930A01A9
S113058024C00E9458020E94140190E09093070135
S1130590809306011AC081E090E090933B01809320
S11305A03A010E94140190E09093030180930201A8
S11305B090930101809300010E940E0206C081E025
S11305C090E090933B0180933A01FF91EF91BF91AA
S11305D0AF919F918F917F916F915F914F913F91D7
S11305E02F910F900FBE0F901F9018951092C0007E
S11305F08EE08093C20008951092C50087E6809330
S1130600C400E1ECF0E088E1808386E08093C200DE
S1130610808180688083789408950E94C40044E6B1
S113062050E061E070E088E491E00E945B0044E601
S113063050E062E070E082E891E00E945B0044E6F2
S113064050E063E070E086EB91E00E945B0044E6DA
S113065050E066E070E08BE692E00E945B000E944E
S1130660DA000895EAE7F0E0808187608083ACE7F0
S1130670B0E08C9180648C938081806880838081D9
S1130680806480830895539A52980895209A219AF9
S1130690229A15B808950E94F6020E9432030E941D
S11306A0FC020E9443030E940D030E944603089526
S11306B00E944B030E94A000FDCF5058BB27AA27DD
S11306C00E9475030C9454040E94460438F00E945E
S11306D04D0420F039F49F3F19F426F40C9443049C
S11306E00EF4E095E7FB0C943D04E92F0E946504A9
S11306F058F3BA17620773078407950720F079F453
S1130700A6F50C9487040EF4E0950B2EBA2FA02DB9
S11307100B01B90190010C01CA01A0011124FF27AA
S1130720591B99F0593F50F4503E68F11A16F040A5
S1130730A22F232F342F4427585FF3CF46953795A4
S11307402795A795F0405395C9F77EF41F16BA0B69
S1130750620B730B840BBAF09150A1F0FF0FBB1F17
S1130760661F771F881FC2F70EC0BA0F621F731F60
S1130770841F48F4879577956795B795F7959E3FBD
S113078008F0B0CF9395880F08F09927EE0F97954E
S1130790879508950E94D1036894B1110C9488043C
S11307A008950E946D0488F09F5798F0B92F9927F7
S11307B0B751B0F0E1F0660F771F881F991F1AF048
S11307C0BA95C9F714C0B13091F00E948704B1E022
S11307D008950C948704672F782F8827B85F39F021
S11307E0B93FCCF3869577956795B395D9F73EF4E1
S11307F090958095709561957F4F8F4F9F4F089589
S1130800E89409C097FB3EF49095809570956195A6
S11308107F4F8F4F9F4F9923A9F0F92F96E9BB275C
S11308209395F695879577956795B795F111F8CFD8
S1130830FAF4BB0F11F460FF1BC06F5F7F4F8F4F43
S11308409F4F16C0882311F096E911C0772321F039
S11308509EE8872F762F05C0662371F096E8862FD1
S113086070E060E02AF09A95660F771F881FDAF728
S1130870880F9695879597F9089597F99F6780E86B
S113088070E060E008959FEF80EC089500240A94DE
S11308901616170618060906089500240A94121657
S11308A01306140605060895092E0394000C11F48A
S11308B0882352F0BB0F40F4BF2B11F460FF04C037
S11308C06F5F7F4F8F4F9F4F089557FD9058440F90
S11308D0551F59F05F3F71F04795880F97FB991F9B
S11308E061F09F3F79F08795089512161306140658
S11308F0551FF2CF4695F1DF08C0161617061806E5
S1130900991FF1CF86957105610508940895E894BF
S1130910BB2766277727CB0197F908950E94A10486
S11309200C9454040E94460438F00E944D0420F0B4
S1130930952311F00C943D040C94430411240C945D
S113094088040E94650470F3959FC1F3950F50E0ED
S1130950551F629FF001729FBB27F00DB11D639F6D
S1130960AA27F00DB11DAA1F649F6627B00DA11D13
S1130970661F829F2227B00DA11D621F739FB00DB9
S1130980A11D621F839FA00D611D221F749F332729
S1130990A00D611D231F849F600D211D822F762FC2
S11309A06A2F11249F5750409AF0F1F088234AF09F
S11309B0EE0FFF1FBB1F661F771F881F915050400B
S11309C0A9F79E3F510580F00C943D040C948804D3
S11309D05F3FE4F3983ED4F3869577956795B79592
S11309E0F795E7959F5FC1F7FE2B880F911D9695AC
S11309F0879597F90895EE0FFF1F0590F491E02D68
S1130A000994FC0188279927E89421912032E9F37D
S1130A10293010F02E30C8F32B3241F02D3239F446
S1130A20689404C00E942A05820F911D21912053CD
S1130A302A30C0F31EF4909581959F4F0895BB27EB
S1130A404A3031F4992322F4BDE2909581959F4F69
S1130A500C9433057AE0979F902D879F802D910DFC
S1130A6011240895BB27FB015527AA27880F991F36
S1130A70AA1FA41710F0A41B83955051B9F7A05DC9
S1130A80AA3308F0A95DA193009779F7B111B19346
S1130A901192CB010C944C05DC01FC01672F719180
S1130AA07723E1F7329704C07C916D937083629150
S10F0AB0AE17BF07C8F30895F894FFCFF9
S1130ABC05000A000A0028001200160054656D7027
S1130ACC203A20002020004C4452203A2000416659
S1130ADC7374616E64203A2000206A65656A20662E
S10D0AEC756E637469652120000033
S9030000FC
