S00C00006D61696E2E7372656373
S11300000C9434000C9451000C9451000C94510045
S11300100C9451000C9451000C9451000C94510018
S11300200C9451000C9451000C9451000C94D40085
S11300300C9451000C9451000C9451000C945100F8
S11300400C9451000C9451000C9459020C945100DE
S11300500C9451000C9451000C9451000C945100D8
S11300600C9451000C94510011241FBECFEFD8E022
S1130070DEBFCDBF11E0A0E0B1E0ECE1FDE002C0E5
S113008005900D92AE32B107D9F721E0AEE2B1E0AE
S113009001C01D92AB36B207E1F70E94BC030C9479
S11300A08C060C9400000F931F93CF93DF938C0165
S11300B08091300190913101892B81F0E0E3F1E0EE
S11300C021E030E0822FE901A781B0852F5F3F4F07
S11300D03796AB2BB9F7853021F415C0C0E0D0E0DA
S11300E080E0FE01EE0FFF1FEE0FFF1FEE0FFF1F5C
S11300F0EC1BFD0BE05DFE4F118300837383628371
S1130100558344831682DF91CF911F910F910895F7
S113011027E0829FC0011124FC01E05DFE4F1182A3
S113012010821382128215821482168280E008954E
S1130130EF92FF921F93CF93DF93C0E3D1E010E0DF
S11301408E81882379F0E881F981309759F00995F7
S11301508E8181508E838C819D81892B19F4812F0E
S11301600E9488001F5F2796153051F7DF91CF91C9
S11301701F91FF90EF900895CF93C0E08C2F0E94C1
S11301808800CF5FC530D1F781E792E09093890072
S1130190809388008CE08093810082E080936F00DC
S11301A0CF910895789408951F920F920FB60F92ED
S11301B011242F933F938F939F93AF93BF93EF9308
S11301C0FF93E0E3F1E023E531E080819181892B25
S11301D091F082819381009759F486818F5F8683A1
S11301E084819581009739F001979383828303C0BA
S11301F00197938382833796E217F30731F7FF91D0
S1130200EF91BF91AF919F918F913F912F910F905B
S11302100FBE0F901F901895E0ECF0E080818823CA
S1130220ECF78091C60080530895E0ECF0E09081F3
S113023095FFFDCF8093C6000895CF93DF93EC0123
S11302408881882331F021960E94150189918111BA
S1130250FBCFDF91CF9108958DE00E9415018AE0D4
S11302600E9415010895ECE7F0E09081907F90835F
S11302709081892B8083EAE7F0E080818064808329
S1130280808186FDFDCF809178009091790008955A
S11302900F931F93CF93DF9383E591E00E94310680
S11302A0EC0186E691E00E9431068C010E9467040D
S11302B08CE591E00E943106209102013091030106
S11302C0309307012093060140910A0150910B01DC
S11302D0C417D5073CF440910E0150910F01041747
S11302E015073CF040912E0150912F01452B71F0E0
S11302F0B2C0A9014F5F5F4F4817590754F54091A9
S11303002E0150912F01452B09F4ACC02A98289A4C
S11303101092010110920001209104013091050115
S1130320281739070CF0C0C0299A2FEF81EE94E00A
S1130330215080409040E1F700C0000029982FEF41
S113034081EE94E0215080409040E1F700C000002D
S1130350ABC040910801509109014C175D073CF472
S113036040910C0150910D014017510744F0409108
S11303702E0150912F01452B09F07DC00CC0A9011D
S113038041505109841795075CF540912E01509115
S11303902F01452B29F128982A9A21E030E0309347
S11303A00101209300012091060130910701821779
S11303B093070CF079C0299A2FEF81EE94E0215035
S11303C080409040E1F700C0000029982FEF81EEB3
S11303D094E0215080409040E1F700C0000064C0E8
S11303E04091000150910101452BC9F082179307F8
S11303F00CF05AC0299A2FEF81EE94E021508040EE
S11304009040E1F700C0000029982FEF81EE94E0BE
S1130410215080409040E1F700C0000045C0209189
S113042004013091050128173907F4F5299A2FEFB3
S113043081EE94E0215080409040E1F700C000003C
S113044029982FEF81EE94E0215080409040E1F70D
S113045000C0000029C0A9014F5F5F4F481759072A
S113046094F454CF40910801509109014C175D0751
S11304700CF091CF10C0A901415051098417950780
S11304800CF0AECF88CF40910801509109014C1770
S11304905D078CF765CF40910C0150910D01401719
S11304A051070CF078CF6BCFDF91CF911F910F9153
S11304B008951F920F920FB60F9211242F933F931A
S11304C04F935F936F937F938F939F93AF93BF9358
S11304D0CF93DF93EF93FF938091C600833349F169
S11304E028F4813351F08233A9F0C0C0873309F472
S11304F085C0883309F4A9C0B9C081E090E0909325
S11305002F0180932E0185E090E090930301809366
S11305100201ACC081E090E090932F0180932E0102
S11305208091060190910701909303018093020149
S11305309DC010922F0110922E010E940C01C82F11
S11305400E940C012C2F30E0A901440F551F220FEB
S1130550331F220F331F220F331F240F351F280F81
S1130560311D30930F0120930E010E940C01C82FFE
S11305700E940C012C2F30E0A901440F551F220FBB
S1130580331F220F331F220F331F240F351F280F51
S1130590311D30930D0120930C010E940C01C82FD2
S11305A00E940C012C2F30E0A901440F551F220F8B
S11305B0331F220F331F220F331F240F351F280F21
S11305C0311D30930B0120930A010E940C01C82FA6
S11305D00E940C012C2F30E0A901440F551F220F5B
S11305E0331F220F331F220F331F240F351F280FF1
S11305F0311D309309012093080138C081E090E057
S113060090932F0180932E010E940C01D82F0E94F9
S11306100C01C82F0E940C012C2F30E0A901440FBB
S1130620551F220F331F220F331F220F331F240F96
S1130630351F94E6D99F200D311D1124280F311D3B
S1130640309303012093020111C00E940C0190E039
S113065090932F0180932E01019741F48CE591E052
S11306600E9431069093030180930201FF91EF9160
S1130670DF91CF91BF91AF919F918F917F916F91B6
S11306805F914F913F912F910F900FBE0F901F904C
S113069018951092C0008EE08093C20008951092C5
S11306A0C50087E68093C400E1ECF0E088E1808334
S11306B086E08093C2008081806880837894089566
S11306C00E94BC0049E150E061E070E081EC93E0FD
S11306D00E94530049E150E062E070E08BEF93E048
S11306E00E94530049E150E063E070E08FE294E03F
S11306F00E94530049E150E064E070E08CE291E034
S11307000E9453004AE050E060E070E088E491E029
S11307100E9453000E94D2000895EAE7F0E080812D
S113072087608083ACE7B0E08C9180648C93808197
S1130730806880838081806480830895539A52986E
S11307400895209A219A229A2A9A08950E94490388
S11307500E948D030E944F030E949E030E94600327
S11307600E94A1032FEF89E698E121508040904038
S1130770E1F700C0000008950E94A6030E949800BB
S1130780FDCF80E191E00E941D0180E00E943301D1
S1130790BC0180E090E00E94360520E030E040E8B3
S11307A05AE30E94C40520E030E040EA50E40E948D
S11307B0C40520E030E040E05FE30E94930420E0C1
S11307C030E048EC52E40E94C4050E940705DC01B5
S11307D0CB0190935901809358014AE066E671E099
S11307E00E944F0686E691E00E941D0188E191E097
S11307F00E941D0108958BE191E00E941D0181E09A
S11308000E943301BC0180E090E00E94360520E0A4
S113081030E040E85AE30E94C40520E030E048ECB0
S113082052E40E94C40520E030E040EC5FE30E9403
S1130830C4050E940705DC01CB0190935901809304
S113084058014AE063E571E00E944F0683E591E0B8
S11308500E941D0188E191E00E941D01089580E439
S113086096E0909389008093880082E291E00E9450
S11308701D015B9A85E38A95F1F700005B984A9B1A
S1130880FECF10928500109284004A99FECF6091A9
S113089084007091850080E090E00E94360520E09D
S11308A030E040E85EE30E94C4050E940005DC01DC
S11308B0CB014AE06CE571E00E944F068CE591E0C3
S11308C00E941D0188E191E00E941D01089580E4C9
S11308D096E090938900809388005B9A85E38A95DB
S11308E0F1F700005B984A9BFECF109285001092AE
S11308F084004A99FECF609184007091850080E065
S113090090E00E94360520E030E040E85EE30E947B
S1130910C4050E940005DC01CB014AE06CE571E0EE
S11309200E944F0608955058BB27AA270E94AB0483
S11309300C948A050E947C0538F00E94830520F0FF
S113094039F49F3F19F426F40C9479050EF4E095DC
S1130950E7FB0C947305E92F0E949B0558F3BA1723
S1130960620773078407950720F079F4A6F50C94C1
S1130970BD050EF4E0950B2EBA2FA02D0B01B90185
S113098090010C01CA01A0011124FF27591B99F001
S1130990593F50F4503E68F11A16F040A22F232F0D
S11309A0342F4427585FF3CF469537952795A7955D
S11309B0F0405395C9F77EF41F16BA0B620B730B04
S11309C0840BBAF09150A1F0FF0FBB1F661F771F75
S11309D0881FC2F70EC0BA0F621F731F841F48F42A
S11309E0879577956795B795F7959E3F08F0B0CFB3
S11309F09395880F08F09927EE0F9795879508959A
S1130A000E9407056894B1110C94BE0508950E94D4
S1130A10A30588F09F5798F0B92F9927B751B0F0E4
S1130A20E1F0660F771F881F991F1AF0BA95C9F76E
S1130A3014C0B13091F00E94BD05B1E008950C944A
S1130A40BD05672F782F8827B85F39F0B93FCCF3FD
S1130A50869577956795B395D9F73EF490958095EB
S1130A60709561957F4F8F4F9F4F0895E89409C00B
S1130A7097FB3EF490958095709561957F4F8F4FCD
S1130A809F4F9923A9F0F92F96E9BB279395F695E3
S1130A90879577956795B795F111F8CFFAF4BB0F61
S1130AA011F460FF1BC06F5F7F4F8F4F9F4F16C0C5
S1130AB0882311F096E911C0772321F09EE8872F4F
S1130AC0762F05C0662371F096E8862F70E060E00B
S1130AD02AF09A95660F771F881FDAF7880F969584
S1130AE0879597F9089597F99F6780E870E060E02B
S1130AF008959FEF80EC089500240A9416161706B3
S1130B0018060906089500240A94121613061406FA
S1130B1005060895092E0394000C11F4882352F05D
S1130B20BB0F40F4BF2B11F460FF04C06F5F7F4F15
S1130B308F4F9F4F089557FD9058440F551F59F0FC
S1130B405F3F71F04795880F97FB991F61F09F3FB6
S1130B5079F087950895121613061406551FF2CFDF
S1130B604695F1DF08C0161617061806991FF1CF2F
S1130B7086957105610508940895E894BB27662756
S1130B807727CB0197F908950E94D7050C948A051D
S1130B900E947C0538F00E94830520F0952311F013
S1130BA00C9473050C94790511240C94BE050E94D1
S1130BB09B0570F3959FC1F3950F50E0551F629FFD
S1130BC0F001729FBB27F00DB11D639FAA27F00DA2
S1130BD0B11DAA1F649F6627B00DA11D661F829FC9
S1130BE02227B00DA11D621F739FB00DA11D621FAE
S1130BF0839FA00D611D221F749F3327A00D611DCB
S1130C00231F849F600D211D822F762F6A2F1124AC
S1130C109F5750409AF0F1F088234AF0EE0FFF1FDF
S1130C20BB1F661F771F881F91505040A9F79E3F36
S1130C30510580F00C9473050C94BE055F3FE4F3FA
S1130C40983ED4F3869577956795B795F795E7958C
S1130C509F5FC1F7FE2B880F911D9695879597F995
S1130C600895FC0188279927E89421912032E9F31B
S1130C70293010F02E30C8F32B3241F02D3239F4E4
S1130C80689404C00E945A06820F911D219120533A
S1130C902A30C0F31EF4909581959F4F0895BB2789
S1130CA04A3031F4992322F4BDE2909581959F4F07
S1130CB00C9463067AE0979F902D879F802D910D69
S1130CC011240895BB27FB015527AA27880F991FD4
S1130CD0AA1FA41710F0A41B83955051B9F7A05D67
S1130CE0AA3308F0A95DA193009779F7B111B193E4
S1130CF01192CB010C947C06DC01FC01672F7191ED
S1130D007723E1F7329704C07C916D9370836291ED
S10F0D10AE17BF07C8F30895F894FFCF96
S1130D1C010028000500280010003C0010001800F9
S1130D2C54656D70203A20002020004C4452203A27
S1110D3C200064697374616E6365203A2000C0
S9030000FC
